:020000040000FA
:100000000A128A11E82F00308A000408840A820745
:10001000003444346F346E346534203473346534C2
:100020007434743469346E34673420346E346F340D
:100030007434653473342134003453346534743487
:10004000743469346E346734203466346F347234F7
:1000500020346E346F3474346534003441340034E9
:1000600042340034443400344534003447340034DE
:10054200E4340734F00070088312031388000800B3
:10055200F101F10A00300A128A1113230800023055
:10056200F5007508F10000300A128A111323080001
:10057200C030F5007508F10000300A128A11132309
:100582000800F6007608F5007508F10001300A123D
:100592008A1113230800F000701CD32A831203135C
:1005A200861608008312031386120800F000701CDE
:1005B200DE2A83120313061608008312031306129F
:1005C200080001300A128A11CC220A128A11623002
:1005D200F6006530F500F50BEC2AF60BEC2AF12A51
:1005E2003830F5007508F10000300A128A11132321
:1005F2000A128A110630F5007508F10000300A125D
:100602008A1113230A128A110C30F5007508F100C1
:1006120000300A128A1113230A128A110A128A114D
:10062200A9220800F40074080A128A11D7220A12B9
:100632008A1171080A128A11A3220A128A11013040
:100642000A128A11CC220A128A110730F3007D3075
:10065200F200F20B2A2BF30B2A2B00300A128A111A
:10066200CC220A128A110D30F300FB30F200F20B99
:10067200382BF30B382B3D2B00300A128A11D7226C
:100682000A128A1100300A128A11A3220800F80005
:10069200780884000A128A1103200A128A11003A89
:1006A20003190800780884000A128A1103200A122A
:1006B2008A110A3A0319672B780884000A128A11F0
:1006C20003200A128A110D3A031D6D2B0A128A1198
:1006D200B9220A128A11792B780884000A128A1127
:1006E20003200A128A110A128A11C2220A128A11DC
:1006F2000130F7007708F807492BF401F501750876
:10070200803AF2007108803A7202031D8A2B700847
:1007120074020318C72BA0308312031387000E3014
:10072200F3001C30F200F20B942BF30B942B00001D
:1007320060308312031387000E30F3001C30F20086
:10074200F20BA12BF30BA12B0000503083120313E9
:1007520087000E30F3001C30F200F20BAE2BF30BCD
:10076200AE2B000090308312031387000E30F3008B
:100772001C30F200F20BBB2BF30BBB2B0000013041
:10078200F4070318F50A0030F507802B83120313D0
:1007920087010800F401F5017508803AF20071083A
:1007A200803A7202031DD72B700874020318142CAE
:1007B20090308312031387000E30F3001C30F200D6
:1007C200F20BE12BF30BE12B0000503083120313E9
:1007D20087000E30F3001C30F200F20BEE2BF30B0D
:1007E200EE2B000060308312031387000E30F300FB
:1007F2001C30F200F20BFB2BF30BFB2B0000A030A2
:100802008312031387000E30F3001C30F200F20B48
:10081200082CF30B082C00000130F4070318F50A2A
:100822000030F507CD2B83120313870108008312D2
:1008320003138501860187018801FF3083160313A4
:10084200850003308600870188018312031306178F
:100852000A128A11E2220A128A110A128A11B0229B
:100862000A128A1115300A128A1148230A128A11B1
:100872000A128A11B9220A128A112A300A128A111C
:1008820048230A128A111A30FB005E30FA006E30D9
:10089200F900F90B4A2CFA0B4A2CFB0B4A2C0000EC
:1008A200C830F0000030F1000A128A11CB230A127C
:1008B2008A110630FB001330FA00AD30F900F90B53
:1008C200602CFA0B602CFB0B602C672C0A30F000BA
:1008D2000030F1000A128A117E230A128A110630B0
:1008E200FB001330FA00AD30F900F90B762CFA0B4D
:1008F200762CFB0B762C7D2C0A30F0000030F100B8
:100902000A128A117E230A128A110630FB00133062
:10091200FA00AD30F900F90B8C2CFA0B8C2CFB0B86
:100922008C2C932C6430F0000030F1000A128A11F2
:100932007E230A128A110630FB001330FA00AD3012
:10094200F900F90BA22CFA0BA22CFB0BA22CA92C5E
:100952001E30F0000030F1000A128A11CB230A1275
:100962008A110630FB001330FA00AD30F900F90BA2
:10097200B82CFA0BB82CFB0BB82CBF2C1430F0009F
:100982000030F1000A128A11CB230A128A110A12CC
:100992008A11B0220A128A1115300A128A114823CA
:1009A2000A128A110A128A11B9220A128A112630EF
:1009B2000A128A1148230A128A111A30FB005E3089
:1009C200FA006E30F900F90BE42CFA0BE42CFB0B65
:1009D200E42C00001430F0000030F1000A128A11F9
:1009E200CB230A128A110630FB001330FA00AD3015
:1009F200F900F90BFA2CFA0BFA2CFB0BFA2C012D4D
:100A02006430F0000030F1000A128A117E230A12CB
:100A12008A110630FB001330FA00AD30F900F90BF1
:100A2200102DFA0B102DFB0B102D172D9630F00008
:100A32000030F1000A128A117E230A128A1106304E
:100A4200FB001330FA00AD30F900F90B262DFA0B3A
:100A5200262DFB0B262D2D2D2830F0000030F10025
:100A62000A128A117E230A128A110630FB00133001
:100A7200FA00AD30F900F90B3C2DFA0B3C2DFB0BC3
:100A82003C2D432D4630F0000030F1000A128A114D
:100A9200CB230A128A110630FB001330FA00AD3064
:100AA200F900F90B522DFA0B522DFB0B522D592D39
:100AB2002D30F0000030F1000A128A11CB230A1205
:100AC2008A110A128A11B0220A128A1115300A12E8
:100AD2008A1148230A128A110A128A11B9220A12A9
:100AE2008A112C300A128A1148230A128A111A30EA
:100AF200FB005E30FA006E30F900F90B7E2DFA0B26
:100B02007E2DFB0B7E2D00007830F0000030F100CE
:100B12000A128A11CB230A128A110630FB00133003
:100B2200FA00AD30F900F90B942DFA0B942DFB0B62
:100B3200942D9B2D4630F0000030F1000A128A11EC
:100B42007E230A128A110630FB001330FA00AD3000
:100B5200F900F90BAA2DFA0BAA2DFB0BAA2DB12D28
:100B62009630F0000030F1000A128A117E230A1238
:100B72008A110630FB001330FA00AD30F900F90B90
:100B8200C02DFA0BC02DFB0BC02DC72D0A30F00073
:100B92000030F1000A128A117E230A128A110630ED
:100BA200FB001330FA00AD30F900F90BD62DFA0B29
:100BB200D62DFB0BD62DDD2D0A30F0000030F100D2
:100BC2000A128A11CB230A128A110630FB00133053
:100BD200FA00AD30F900F90BEC2DFA0BEC2DFB0B02
:100BE200EC2DF32D2330F0000030F1000A128A11AF
:100BF200CB230A128A110A128A11B0220A128A110E
:100C020015300A128A1148230A128A110A128A110D
:100C1200B9220A128A112E300A128A1148230A12A4
:100C22008A111A30FB005E30FA006E30F900F90BBF
:100C3200182EFA0B182EFB0B182E0000C830F000ED
:100C42000030F1000A128A11CB230A128A110630EF
:100C5200FB001330FA00AD30F900F90B2E2EFA0B1F
:100C62002E2EFB0B2E2E352E6430F0000030F100BC
:100C72000A128A117E230A128A110630FB001330EF
:100C8200FA00AD30F900F90B442EFA0B442EFB0B9F
:100C9200442E4B2E4B30F0000030F1000A128A1124
:100CA2007E230A128A110630FB001330FA00AD309F
:100CB200F900F90B5A2EFA0B5A2EFB0B5A2E612E03
:100CC2001E30F0000030F1000A128A117E230A124F
:100CD2008A110630FB001330FA00AD30F900F90B2F
:100CE200702EFA0B702EFB0B702E772E9630F000C2
:100CF2000030F1000A128A11CB230A128A1106303F
:100D0200FB001330FA00AD30F900F90B862EFA0B16
:100D1200862EFB0B862E8D2EFA30F0000030F1006D
:100D22000A128A11CB230A128A110A128A11B022DC
:100D32000A128A1115300A128A1148230A128A11DC
:100D42000A128A11B9220A128A1128300A128A1149
:100D520048230A128A111A30FB005E30FA006E3004
:100D6200F900F90BB22EFA0BB22EFB0BB22E0000D9
:100D72001430F0000030F1000A128A11CB230A125B
:100D82008A118230FA00DD30F900F90BC62EFA0B17
:100D9200C62ECB2E6430F0000030F1000A128A1108
:100DA2007E230A128A116230FA006530F900F90BCB
:100DB200D82EFA0BD82EDD2E9630F0000030F1003E
:100DC2000A128A117E230A128A11C330FA00CD3028
:100DD200F900F90BEA2EFA0BEA2E2830F000003067
:100DE200F1000A128A117E230A128A110630FB00D0
:100DF2001330FA00AD30F900F90BFD2EFA0BFD2E7F
:100E0200FB0BFD2E042F4630F0000030F1000A12D9
:100E12008A11CB230A128A110630FB001330FA0022
:100E2200AD30F900F90B132FFA0B132FFB0B132F15
:100E32001A2F6430F0000030F1000A128A11CB231D
:100E42000A128A110A128A11B0220A128A11153064
:100E52000A128A1148230A128A110A128A11B92225
:100E62000A128A112C300A128A1148230A128A1194
:100E72001A30FB005E30FA006E30F900F90B3F2F9A
:100E8200FA0B3F2FFB0B3F2F00000C30F00000301D
:100E9200F1000A128A11CB230A128A110630FB00D2
:100EA2001330FA00AD30F900F90B552FFA0B552F1C
:100EB200FB0B552F5C2F0A30F0000030F1000A12B4
:100EC2008A117E230A128A110630FB001330FA00BF
:100ED200AD30F900F90B6B2FFA0B6B2FFB0B6B2F5D
:100EE200722F1430F0000030F1000A128A117E23B2
:100EF2000A128A110630FB001330FA00AD30F900F5
:100F0200F90B812FFA0B812FFB0B812F882F643075
:100F1200F0000030F1000A128A117E230A128A11AF
:100F22000630FB001330FA00AD30F900F90B972FB1
:100F3200FA0B972FFB0B972F9E2F0A30F0000030F1
:100F4200F1000A128A11CB230A128A110630FB0021
:100F52001330FA00AD30F900F90BAD2FFA0BAD2FBB
:100F6200FB0BAD2FB42F1E30F0000030F1000A123F
:100F72008A11CB230A128A113330FB00BB30FA00EC
:100F8200DF30F900F90BC32FFA0BC32FFB0BC32F72
:100F9200CA2F0A128A11A9220A128A110A128A1166
:100FA200B0220A128A1101300A128A1148230A1247
:100FB2008A117F30FB00D430FA003130F900F90B8E
:100FC200E02FFA0BE02FFB0BE02FE72F2E2C0A125B
:100FD2008A11A1220A128A11FC000A128A11A22283
:100FE200FD00A001A101A201A301A401A501A60186
:0E0FF200A701A801A90183010A128A11182C77
:02400E003A3F37
:00000001FF
